{
  "contractName": "Item",
  "abi": [
    {
      "inputs": [
        {
          "internalType": "contract ItemManager",
          "name": "parentContract",
          "type": "address"
        },
        {
          "internalType": "uint256",
          "name": "itemPrice",
          "type": "uint256"
        },
        {
          "internalType": "uint256",
          "name": "itemIndex",
          "type": "uint256"
        }
      ],
      "stateMutability": "nonpayable",
      "type": "constructor"
    },
    {
      "stateMutability": "nonpayable",
      "type": "fallback"
    },
    {
      "inputs": [],
      "name": "index",
      "outputs": [
        {
          "internalType": "uint256",
          "name": "",
          "type": "uint256"
        }
      ],
      "stateMutability": "view",
      "type": "function"
    },
    {
      "inputs": [],
      "name": "priceInWei",
      "outputs": [
        {
          "internalType": "uint256",
          "name": "",
          "type": "uint256"
        }
      ],
      "stateMutability": "view",
      "type": "function"
    },
    {
      "stateMutability": "payable",
      "type": "receive"
    }
  ],
  "bytecode": "0x608060405234801561001057600080fd5b506040516104803803806104808339818101604052606081101561003357600080fd5b81019080805190602001909291908051906020019092919080519060200190929190505050816000819055508060018190555082600360006101000a81548173ffffffffffffffffffffffffffffffffffffffff021916908373ffffffffffffffffffffffffffffffffffffffff1602179055505050506103c7806100b96000396000f3fe60806040526004361061002d5760003560e01c80632986c0e5146103035780633c8da5881461032e576102f4565b366102f4576000600254146100aa576040517f08c379a000000000000000000000000000000000000000000000000000000000815260040180806020018281038252601e8152602001807f546865206974656d2077617320616c726561647920707572636861736564000081525060200191505060405180910390fd5b3460005414610121576040517f08c379a000000000000000000000000000000000000000000000000000000000815260040180806020018281038252601a8152602001807f4f6e6c792066756c6c207061796d656e747320616c6c6f77656400000000000081525060200191505060405180910390fd5b346002600082825401925050819055506000600360009054906101000a900473ffffffffffffffffffffffffffffffffffffffff1673ffffffffffffffffffffffffffffffffffffffff1634600154604051602401808281526020019150506040516020818303038152906040527f800fb83f000000000000000000000000000000000000000000000000000000007bffffffffffffffffffffffffffffffffffffffffffffffffffffffff19166020820180517bffffffffffffffffffffffffffffffffffffffffffffffffffffffff83818316178352505050506040518082805190602001908083835b60208310610230578051825260208201915060208101905060208303925061020d565b6001836020036101000a03801982511681845116808217855250505050505090500191505060006040518083038185875af1925050503d8060008114610292576040519150601f19603f3d011682016040523d82523d6000602084013e610297565b606091505b50509050806102f1576040517f08c379a000000000000000000000000000000000000000000000000000000000815260040180806020018281038252602c815260200180610366602c913960400191505060405180910390fd5b50005b34801561030057600080fd5b50005b34801561030f57600080fd5b50610318610359565b6040518082815260200191505060405180910390f35b34801561033a57600080fd5b5061034361035f565b6040518082815260200191505060405180910390f35b60015481565b6000548156fe546865207472616e73616374696f6e207761736e2774207375636365737366756c2c2063616e63656c696e67a264697066735822122041215e913e04baa4c4cc93efe856a44a708da926e4cccd7e8096f56cc681509364736f6c63430007000033",
  "immutableReferences": {},
  "source": "// SPDX-License-Identifier: GPL-3.0\r\npragma solidity >=0.7.0 <0.9.0;\r\n\r\nimport \"./ItemManager.sol\";\r\n\r\n/*\r\n    We create a new item contract to assign an address to every item, so when the user wants to buy \r\n    a new item, he just has to send money to certain address (the item address), and the contract will\r\n    handle that transaction and trigger the method on ItemManager, so the user never has to interact with \r\n    the ItemManager contract.\r\n\r\n    We create a new Item in ItemManager, it gives us a new address where we have to deploy the Item contract,\r\n    and we give that address to the custer, so they can send money to that address, and in this way they bought the item.\r\n*/\r\ncontract Item{\r\n    uint public priceInWei;\r\n    uint public index;\r\n    uint pricePaid;\r\n\r\n    ItemManager itemManager;\r\n\r\n    constructor(ItemManager parentContract, uint itemPrice, uint itemIndex){\r\n        priceInWei = itemPrice;\r\n        index = itemIndex;\r\n        itemManager = parentContract;\r\n    }\r\n\r\n    // call function is a low level function, more dangerous than anothers because it does not trigger error if it was,\r\n    //but it returns a boolean that we can use instead.\r\n    receive() external payable{\r\n        require(pricePaid == 0, \"The item was already purchased\");\r\n        require(priceInWei == msg.value, \"Only full payments allowed\");\r\n        pricePaid += msg.value;\r\n        (bool success, ) = address(itemManager).call{value:msg.value}(abi.encodeWithSignature(\"triggerPayment(uint256)\", index));\r\n        require(success, \"The transaction wasn't successful, canceling\");\r\n    }\r\n\r\n    fallback() external{}\r\n}",
  "sourcePath": "C:\\Users\\Gaston\\source\\repos\\Blockchain\\SupplyChain\\contracts\\Item.sol",
  "compiler": {
    "name": "solc",
    "version": "0.7.0+commit.9e61f92b.Emscripten.clang"
  },
  "schemaVersion": "3.4.6",
  "updatedAt": "2022-03-30T01:21:38.966Z",
  "devdoc": {
    "kind": "dev",
    "methods": {},
    "version": 1
  },
  "userdoc": {
    "kind": "user",
    "methods": {},
    "version": 1
  }
}