{
  "contractName": "ItemManager",
  "abi": [
    {
      "anonymous": false,
      "inputs": [
        {
          "indexed": false,
          "internalType": "uint256",
          "name": "itemIndex",
          "type": "uint256"
        },
        {
          "indexed": false,
          "internalType": "string",
          "name": "identifier",
          "type": "string"
        },
        {
          "indexed": false,
          "internalType": "uint256",
          "name": "step",
          "type": "uint256"
        },
        {
          "indexed": false,
          "internalType": "address",
          "name": "itemAddress",
          "type": "address"
        }
      ],
      "name": "SupplyChainStep",
      "type": "event"
    },
    {
      "inputs": [],
      "name": "isOwner",
      "outputs": [
        {
          "internalType": "bool",
          "name": "",
          "type": "bool"
        }
      ],
      "stateMutability": "view",
      "type": "function"
    },
    {
      "inputs": [
        {
          "internalType": "uint256",
          "name": "",
          "type": "uint256"
        }
      ],
      "name": "items",
      "outputs": [
        {
          "internalType": "contract Item",
          "name": "item",
          "type": "address"
        },
        {
          "internalType": "enum ItemManager.SupplyChainSteps",
          "name": "step",
          "type": "uint8"
        },
        {
          "internalType": "string",
          "name": "identifier",
          "type": "string"
        },
        {
          "internalType": "uint256",
          "name": "priceInWei",
          "type": "uint256"
        }
      ],
      "stateMutability": "view",
      "type": "function"
    },
    {
      "inputs": [
        {
          "internalType": "string",
          "name": "identifier",
          "type": "string"
        },
        {
          "internalType": "uint256",
          "name": "itemPrice",
          "type": "uint256"
        }
      ],
      "name": "createItem",
      "outputs": [],
      "stateMutability": "nonpayable",
      "type": "function"
    },
    {
      "inputs": [
        {
          "internalType": "uint256",
          "name": "itemIndex",
          "type": "uint256"
        }
      ],
      "name": "triggerPayment",
      "outputs": [],
      "stateMutability": "payable",
      "type": "function"
    },
    {
      "inputs": [
        {
          "internalType": "uint256",
          "name": "itemIndex",
          "type": "uint256"
        }
      ],
      "name": "triggerDelivery",
      "outputs": [],
      "stateMutability": "nonpayable",
      "type": "function"
    }
  ],
  "bytecode": "0x608060405234801561001057600080fd5b50336000806101000a81548173ffffffffffffffffffffffffffffffffffffffff021916908373ffffffffffffffffffffffffffffffffffffffff160217905550611942806100606000396000f3fe608060405260043610620000505760003560e01c8063800fb83f14620000555780638c55174214620000755780638f32d59b14620000a3578063bfb231d214620000d3578063cd31831e146200011a575b600080fd5b6200007360048036038101906200006d919062000969565b62000148565b005b3480156200008257600080fd5b50620000a160048036038101906200009b919062000afd565b6200033c565b005b348015620000b057600080fd5b50620000bb62000532565b604051620000ca919062000b80565b60405180910390f35b348015620000e057600080fd5b50620000ff6004803603810190620000f9919062000969565b62000589565b60405162000111949392919062000d4c565b60405180910390f35b3480156200012757600080fd5b5062000146600480360381019062000140919062000969565b62000676565b005b34600160008381526020019081526020016000206002015414620001a3576040517f08c379a00000000000000000000000000000000000000000000000000000000081526004016200019a9062000df0565b60405180910390fd5b60006002811115620001ba57620001b962000c28565b5b6001600083815260200190815260200160002060000160149054906101000a900460ff166002811115620001f357620001f262000c28565b5b1462000236576040517f08c379a00000000000000000000000000000000000000000000000000000000081526004016200022d9062000e62565b60405180910390fd5b600180600083815260200190815260200160002060000160146101000a81548160ff0219169083600281111562000272576200027162000c28565b5b02179055507f9edad0f462fd8f168e8f1b96ad8326447fd29e5ed3e02f16a6350f65513db0ed81600160008481526020019081526020016000206001016001600085815260200190815260200160002060000160149054906101000a900460ff166002811115620002e857620002e762000c28565b5b6001600086815260200190815260200160002060000160009054906101000a900473ffffffffffffffffffffffffffffffffffffffff1660405162000331949392919062000fae565b60405180910390a150565b6200034662000532565b62000388576040517f08c379a00000000000000000000000000000000000000000000000000000000081526004016200037f9062001052565b60405180910390fd5b600030826002546040516200039d906200085c565b620003ab93929190620010ad565b604051809103906000f080158015620003c8573d6000803e3d6000fd5b5090508060016000600254815260200190815260200160002060000160006101000a81548173ffffffffffffffffffffffffffffffffffffffff021916908373ffffffffffffffffffffffffffffffffffffffff160217905550826001600060025481526020019081526020016000206001019080519060200190620004509291906200086a565b508160016000600254815260200190815260200160002060020181905550600060016000600254815260200190815260200160002060000160146101000a81548160ff02191690836002811115620004ad57620004ac62000c28565b5b02179055507f9edad0f462fd8f168e8f1b96ad8326447fd29e5ed3e02f16a6350f65513db0ed6002548460016000600254815260200190815260200160002060000160149054906101000a900460ff16600281111562000512576200051162000c28565b5b84604051620005259493929190620010ea565b60405180910390a1505050565b60008060009054906101000a900473ffffffffffffffffffffffffffffffffffffffff1673ffffffffffffffffffffffffffffffffffffffff163373ffffffffffffffffffffffffffffffffffffffff1614905090565b60016020528060005260406000206000915090508060000160009054906101000a900473ffffffffffffffffffffffffffffffffffffffff16908060000160149054906101000a900460ff1690806001018054620005e79062000eb3565b80601f0160208091040260200160405190810160405280929190818152602001828054620006159062000eb3565b8015620006665780601f106200063a5761010080835404028352916020019162000666565b820191906000526020600020905b8154815290600101906020018083116200064857829003601f168201915b5050505050908060020154905084565b6200068062000532565b620006c2576040517f08c379a0000000000000000000000000000000000000000000000000000000008152600401620006b99062001052565b60405180910390fd5b60016002811115620006d957620006d862000c28565b5b6001600083815260200190815260200160002060000160149054906101000a900460ff16600281111562000712576200071162000c28565b5b1462000755576040517f08c379a00000000000000000000000000000000000000000000000000000000081526004016200074c90620011b4565b60405180910390fd5b60026001600083815260200190815260200160002060000160146101000a81548160ff0219169083600281111562000792576200079162000c28565b5b02179055507f9edad0f462fd8f168e8f1b96ad8326447fd29e5ed3e02f16a6350f65513db0ed81600160008481526020019081526020016000206001016001600085815260200190815260200160002060000160149054906101000a900460ff16600281111562000808576200080762000c28565b5b6001600086815260200190815260200160002060000160009054906101000a900473ffffffffffffffffffffffffffffffffffffffff1660405162000851949392919062000fae565b60405180910390a150565b61073680620011d783390190565b828054620008789062000eb3565b90600052602060002090601f0160209004810192826200089c5760008555620008e8565b82601f10620008b757805160ff1916838001178555620008e8565b82800160010185558215620008e8579182015b82811115620008e7578251825591602001919060010190620008ca565b5b509050620008f79190620008fb565b5090565b5b8082111562000916576000816000905550600101620008fc565b5090565b6000604051905090565b600080fd5b600080fd5b6000819050919050565b62000943816200092e565b81146200094f57600080fd5b50565b600081359050620009638162000938565b92915050565b60006020828403121562000982576200098162000924565b5b6000620009928482850162000952565b91505092915050565b600080fd5b600080fd5b6000601f19601f8301169050919050565b7f4e487b7100000000000000000000000000000000000000000000000000000000600052604160045260246000fd5b620009f082620009a5565b810181811067ffffffffffffffff8211171562000a125762000a11620009b6565b5b80604052505050565b600062000a276200091a565b905062000a358282620009e5565b919050565b600067ffffffffffffffff82111562000a585762000a57620009b6565b5b62000a6382620009a5565b9050602081019050919050565b82818337600083830152505050565b600062000a9662000a908462000a3a565b62000a1b565b90508281526020810184848401111562000ab55762000ab4620009a0565b5b62000ac284828562000a70565b509392505050565b600082601f83011262000ae25762000ae16200099b565b5b813562000af484826020860162000a7f565b91505092915050565b6000806040838503121562000b175762000b1662000924565b5b600083013567ffffffffffffffff81111562000b385762000b3762000929565b5b62000b468582860162000aca565b925050602062000b598582860162000952565b9150509250929050565b60008115159050919050565b62000b7a8162000b63565b82525050565b600060208201905062000b97600083018462000b6f565b92915050565b600073ffffffffffffffffffffffffffffffffffffffff82169050919050565b6000819050919050565b600062000be862000be262000bdc8462000b9d565b62000bbd565b62000b9d565b9050919050565b600062000bfc8262000bc7565b9050919050565b600062000c108262000bef565b9050919050565b62000c228162000c03565b82525050565b7f4e487b7100000000000000000000000000000000000000000000000000000000600052602160045260246000fd5b6003811062000c6b5762000c6a62000c28565b5b50565b600081905062000c7e8262000c57565b919050565b600062000c908262000c6e565b9050919050565b62000ca28162000c83565b82525050565b600081519050919050565b600082825260208201905092915050565b60005b8381101562000ce457808201518184015260208101905062000cc7565b8381111562000cf4576000848401525b50505050565b600062000d078262000ca8565b62000d13818562000cb3565b935062000d2581856020860162000cc4565b62000d3081620009a5565b840191505092915050565b62000d46816200092e565b82525050565b600060808201905062000d63600083018762000c17565b62000d72602083018662000c97565b818103604083015262000d86818562000cfa565b905062000d97606083018462000d3b565b95945050505050565b7f4f6e6c792066756c6c207061796d656e74732061636365707465640000000000600082015250565b600062000dd8601b8362000cb3565b915062000de58262000da0565b602082019050919050565b6000602082019050818103600083015262000e0b8162000dc9565b9050919050565b7f4974656d206973206675727468657220696e2074686520636861696e2e000000600082015250565b600062000e4a601d8362000cb3565b915062000e578262000e12565b602082019050919050565b6000602082019050818103600083015262000e7d8162000e3b565b9050919050565b7f4e487b7100000000000000000000000000000000000000000000000000000000600052602260045260246000fd5b6000600282049050600182168062000ecc57607f821691505b60208210810362000ee25762000ee162000e84565b5b50919050565b60008190508160005260206000209050919050565b6000815462000f0c8162000eb3565b62000f18818662000cb3565b9450600182166000811462000f36576001811462000f495762000f80565b60ff198316865260208601935062000f80565b62000f548562000ee8565b60005b8381101562000f785781548189015260018201915060208101905062000f57565b808801955050505b50505092915050565b600062000f968262000b9d565b9050919050565b62000fa88162000f89565b82525050565b600060808201905062000fc5600083018762000d3b565b818103602083015262000fd9818662000efd565b905062000fea604083018562000d3b565b62000ff9606083018462000f9d565b95945050505050565b7f596f7520617265206e6f7420746865206f776e65720000000000000000000000600082015250565b60006200103a60158362000cb3565b9150620010478262001002565b602082019050919050565b600060208201905081810360008301526200106d816200102b565b9050919050565b6000620010818262000bc7565b9050919050565b6000620010958262001074565b9050919050565b620010a78162001088565b82525050565b6000606082019050620010c460008301866200109c565b620010d3602083018562000d3b565b620010e2604083018462000d3b565b949350505050565b600060808201905062001101600083018762000d3b565b818103602083015262001115818662000cfa565b905062001126604083018562000d3b565b62001135606083018462000f9d565b95945050505050565b7f4974656d20776173206e6f742070616964207965742c2069732066757274686560008201527f7220696e2074686520636861696e2e0000000000000000000000000000000000602082015250565b60006200119c602f8362000cb3565b9150620011a9826200113e565b604082019050919050565b60006020820190508181036000830152620011cf816200118d565b905091905056fe608060405234801561001057600080fd5b5060405161073638038061073683398181016040528101906100329190610134565b816000819055508060018190555082600360006101000a81548173ffffffffffffffffffffffffffffffffffffffff021916908373ffffffffffffffffffffffffffffffffffffffff160217905550505050610187565b600080fd5b600073ffffffffffffffffffffffffffffffffffffffff82169050919050565b60006100b98261008e565b9050919050565b60006100cb826100ae565b9050919050565b6100db816100c0565b81146100e657600080fd5b50565b6000815190506100f8816100d2565b92915050565b6000819050919050565b610111816100fe565b811461011c57600080fd5b50565b60008151905061012e81610108565b92915050565b60008060006060848603121561014d5761014c610089565b5b600061015b868287016100e9565b935050602061016c8682870161011f565b925050604061017d8682870161011f565b9150509250925092565b6105a0806101966000396000f3fe60806040526004361061002d5760003560e01c80632986c0e5146102435780633c8da5881461026e57610235565b3661023557600060025414610077576040517f08c379a000000000000000000000000000000000000000000000000000000000815260040161006e90610302565b60405180910390fd5b34600054146100bb576040517f08c379a00000000000000000000000000000000000000000000000000000000081526004016100b29061036e565b60405180910390fd5b34600260008282546100cd91906103c7565b925050819055506000600360009054906101000a900473ffffffffffffffffffffffffffffffffffffffff1673ffffffffffffffffffffffffffffffffffffffff1634600154604051602401610123919061042c565b6040516020818303038152906040527f800fb83f000000000000000000000000000000000000000000000000000000007bffffffffffffffffffffffffffffffffffffffffffffffffffffffff19166020820180517bffffffffffffffffffffffffffffffffffffffffffffffffffffffff83818316178352505050506040516101ad91906104c1565b60006040518083038185875af1925050503d80600081146101ea576040519150601f19603f3d011682016040523d82523d6000602084013e6101ef565b606091505b5050905080610233576040517f08c379a000000000000000000000000000000000000000000000000000000000815260040161022a9061054a565b60405180910390fd5b005b34801561024157600080fd5b005b34801561024f57600080fd5b50610258610299565b604051610265919061042c565b60405180910390f35b34801561027a57600080fd5b5061028361029f565b604051610290919061042c565b60405180910390f35b60015481565b60005481565b600082825260208201905092915050565b7f546865206974656d2077617320616c7265616479207075726368617365640000600082015250565b60006102ec601e836102a5565b91506102f7826102b6565b602082019050919050565b6000602082019050818103600083015261031b816102df565b9050919050565b7f4f6e6c792066756c6c207061796d656e747320616c6c6f776564000000000000600082015250565b6000610358601a836102a5565b915061036382610322565b602082019050919050565b600060208201905081810360008301526103878161034b565b9050919050565b6000819050919050565b7f4e487b7100000000000000000000000000000000000000000000000000000000600052601160045260246000fd5b60006103d28261038e565b91506103dd8361038e565b9250827fffffffffffffffffffffffffffffffffffffffffffffffffffffffffffffffff0382111561041257610411610398565b5b828201905092915050565b6104268161038e565b82525050565b6000602082019050610441600083018461041d565b92915050565b600081519050919050565b600081905092915050565b60005b8381101561047b578082015181840152602081019050610460565b8381111561048a576000848401525b50505050565b600061049b82610447565b6104a58185610452565b93506104b581856020860161045d565b80840191505092915050565b60006104cd8284610490565b915081905092915050565b7f546865207472616e73616374696f6e207761736e27742073756363657373667560008201527f6c2c2063616e63656c696e670000000000000000000000000000000000000000602082015250565b6000610534602c836102a5565b915061053f826104d8565b604082019050919050565b6000602082019050818103600083015261056381610527565b905091905056fea26469706673582212206efb01cded2c99f331f1767f7fdb77e11aae62b410627f7671fa92288b0f860364736f6c634300080d0033a26469706673582212209e17ddccf2f66bb9fb5d4a475021644b839a9883cbbeca6f76ca2aab275b960064736f6c634300080d0033",
  "immutableReferences": {},
  "source": "// SPDX-License-Identifier: GPL-3.0\r\n\r\npragma solidity >=0.7.0 <0.9.0;\r\n\r\nimport \"./Ownable.sol\";\r\nimport \"./Item.sol\";\r\n\r\n contract ItemManager is Ownable{\r\n    enum SupplyChainSteps{Created, Paid, Delivered}\r\n\r\n    struct S_Item{\r\n        Item item;\r\n        SupplyChainSteps step;\r\n        string identifier;\r\n        uint priceInWei;\r\n    }\r\n\r\n    mapping(uint => S_Item) public items;\r\n    uint index;\r\n\r\n    event SupplyChainStep(uint itemIndex, string identifier, uint step, address itemAddress);\r\n\r\n    function createItem(string memory identifier, uint itemPrice) public onlyOwner{\r\n        Item newItem = new Item(this, itemPrice, index);\r\n        items[index].item = newItem;\r\n        items[index].identifier = identifier;\r\n        items[index].priceInWei = itemPrice;\r\n        items[index].step = SupplyChainSteps.Created;\r\n        emit SupplyChainStep(index, identifier, uint(items[index].step), address(newItem));\r\n    }\r\n\r\n    function triggerPayment(uint itemIndex) public payable{\r\n        require(items[itemIndex].priceInWei == msg.value, \"Only full payments accepted\");\r\n        require(items[itemIndex].step == SupplyChainSteps.Created, \"Item is further in the chain.\");\r\n        items[itemIndex].step = SupplyChainSteps.Paid;\r\n\r\n        emit SupplyChainStep(itemIndex,items[itemIndex].identifier, uint(items[itemIndex].step), address(items[itemIndex].item));\r\n    }\r\n\r\n    function triggerDelivery(uint itemIndex) public onlyOwner{\r\n        require(items[itemIndex].step == SupplyChainSteps.Paid, \"Item was not paid yet, is further in the chain.\");\r\n        items[itemIndex].step = SupplyChainSteps.Delivered;\r\n\r\n        emit SupplyChainStep(itemIndex,items[itemIndex].identifier, uint(items[itemIndex].step), address(items[itemIndex].item));\r\n    }\r\n}",
  "sourcePath": "C:\\Users\\Gaston\\source\\repos\\Blockchain\\SupplyChain\\contracts\\ItemManager.sol",
  "compiler": {
    "name": "solc",
    "version": "0.8.13+commit.abaa5c0e.Emscripten.clang"
  },
  "schemaVersion": "3.4.6",
  "updatedAt": "2022-03-29T19:51:55.314Z",
  "devdoc": {
    "kind": "dev",
    "methods": {},
    "version": 1
  },
  "userdoc": {
    "kind": "user",
    "methods": {},
    "version": 1
  }
}